{
    "_format": "hh-sol-artifact-1",
    "contractName": "AuctionManager",
    "sourceName": "contracts/AuctionManager.sol",
    "abi": [
        {
            "inputs": [
                {
                    "internalType": "uint256",
                    "name": "",
                    "type": "uint256"
                }
            ],
            "name": "auctions",
            "outputs": [
                {
                    "internalType": "contract Auction",
                    "name": "",
                    "type": "address"
                }
            ],
            "stateMutability": "view",
            "type": "function"
        },
        {
            "inputs": [
                {
                    "internalType": "uint256",
                    "name": "_endTime",
                    "type": "uint256"
                },
                {
                    "internalType": "uint256",
                    "name": "_minIncrement",
                    "type": "uint256"
                },
                {
                    "internalType": "uint256",
                    "name": "_directBuyPrice",
                    "type": "uint256"
                },
                {
                    "internalType": "uint256",
                    "name": "_startPrice",
                    "type": "uint256"
                },
                {
                    "internalType": "address",
                    "name": "_nftAddress",
                    "type": "address"
                },
                {
                    "internalType": "uint256",
                    "name": "_tokenId",
                    "type": "uint256"
                }
            ],
            "name": "createAuction",
            "outputs": [
                {
                    "internalType": "bool",
                    "name": "",
                    "type": "bool"
                }
            ],
            "stateMutability": "nonpayable",
            "type": "function"
        },
        {
            "inputs": [
                {
                    "internalType": "address[]",
                    "name": "_auctionsList",
                    "type": "address[]"
                }
            ],
            "name": "getAuctionInfo",
            "outputs": [
                {
                    "internalType": "uint256[]",
                    "name": "directBuy",
                    "type": "uint256[]"
                },
                {
                    "internalType": "address[]",
                    "name": "owner",
                    "type": "address[]"
                },
                {
                    "internalType": "uint256[]",
                    "name": "highestBid",
                    "type": "uint256[]"
                },
                {
                    "internalType": "uint256[]",
                    "name": "tokenIds",
                    "type": "uint256[]"
                },
                {
                    "internalType": "uint256[]",
                    "name": "endTime",
                    "type": "uint256[]"
                },
                {
                    "internalType": "uint256[]",
                    "name": "startPrice",
                    "type": "uint256[]"
                },
                {
                    "internalType": "uint256[]",
                    "name": "auctionState",
                    "type": "uint256[]"
                }
            ],
            "stateMutability": "view",
            "type": "function"
        },
        {
            "inputs": [],
            "name": "getAuctions",
            "outputs": [
                {
                    "internalType": "address[]",
                    "name": "_auctions",
                    "type": "address[]"
                }
            ],
            "stateMutability": "view",
            "type": "function"
        }
    ],
    "bytecode": "0x608060405234801561001057600080fd5b50611922806100206000396000f3fe608060405234801561001057600080fd5b506004361061004c5760003560e01c8063280126061461005157806331adcedc14610079578063571a26a01461009f578063d7c06919146100e0575b600080fd5b61006461005f36600461095e565b6100f5565b60405190151581526020015b60405180910390f35b61008c6100873660046109b3565b61024a565b6040516100709796959493929190610a9c565b6100c86100ad366004610b33565b6001602052600090815260409020546001600160a01b031681565b6040516001600160a01b039091168152602001610070565b6100e8610886565b6040516100709190610b4c565b600080851161010357600080fd5b84841061010f57600080fd5b61012c871161011d57600080fd5b600080549081908061012e83610b66565b919050555060003389898989898960405161014890610939565b6001600160a01b039788168152602081019690965260408601949094526060850192909252608084015290921660a082015260c081019190915260e001604051809103906000f0801580156101a1573d6000803e3d6000fd5b506040516323b872dd60e01b81523360048201526001600160a01b0380831660248301526044820187905291925086918216906323b872dd90606401600060405180830381600087803b1580156101f757600080fd5b505af115801561020b573d6000803e3d6000fd5b5050506000938452505060016020819052604090922080546001600160a01b0319166001600160a01b0392909216919091179055979650505050505050565b60608080808080808767ffffffffffffffff81111561026b5761026b610b8d565b604051908082528060200260200182016040528015610294578160200160208202803683370190505b5096508767ffffffffffffffff8111156102b0576102b0610b8d565b6040519080825280602002602001820160405280156102d9578160200160208202803683370190505b5095508767ffffffffffffffff8111156102f5576102f5610b8d565b60405190808252806020026020018201604052801561031e578160200160208202803683370190505b5094508767ffffffffffffffff81111561033a5761033a610b8d565b604051908082528060200260200182016040528015610363578160200160208202803683370190505b5093508767ffffffffffffffff81111561037f5761037f610b8d565b6040519080825280602002602001820160405280156103a8578160200160208202803683370190505b5092508767ffffffffffffffff8111156103c4576103c4610b8d565b6040519080825280602002602001820160405280156103ed578160200160208202803683370190505b5091508767ffffffffffffffff81111561040957610409610b8d565b604051908082528060200260200182016040528015610432578160200160208202803683370190505b50905060005b888110156108795760008181526001602090815260409182902054825163700cdab160e01b815292516001600160a01b039091169263700cdab19260048083019391928290030181865afa158015610494573d6000803e3d6000fd5b505050506040513d601f19601f820116820180604052508101906104b89190610ba3565b8882815181106104ca576104ca610bbc565b6020908102919091018101919091526000828152600182526040908190205481516302d05d3f60e01b815291516001600160a01b03909116926302d05d3f92600480820193918290030181865afa158015610529573d6000803e3d6000fd5b505050506040513d601f19601f8201168201806040525081019061054d9190610bd2565b87828151811061055f5761055f610bbc565b6001600160a01b03928316602091820292909201810191909152600083815260018252604090819020548151633a588ec560e11b815291519316926374b11d8a926004808401939192918290030181865afa1580156105c2573d6000803e3d6000fd5b505050506040513d601f19601f820116820180604052508101906105e69190610ba3565b8682815181106105f8576105f8610bbc565b6020908102919091018101919091526000828152600182526040908190205481516305f5c3df60e21b815291516001600160a01b03909116926317d70f7c92600480820193918290030181865afa158015610657573d6000803e3d6000fd5b505050506040513d601f19601f8201168201806040525081019061067b9190610ba3565b85828151811061068d5761068d610bbc565b6020908102919091018101919091526000828152600182526040908190205481516318cbe5db60e11b815291516001600160a01b0390911692633197cbb692600480820193918290030181865afa1580156106ec573d6000803e3d6000fd5b505050506040513d601f19601f820116820180604052508101906107109190610ba3565b84828151811061072257610722610bbc565b60209081029190910181019190915260008281526001825260409081902054815163f1a9af8960e01b815291516001600160a01b039091169263f1a9af8992600480820193918290030181865afa158015610781573d6000803e3d6000fd5b505050506040513d601f19601f820116820180604052508101906107a59190610ba3565b8382815181106107b7576107b7610bbc565b6020908102919091018101919091526000828152600182526040908190205481516208bfc360e81b815291516001600160a01b03909116926308bfc30092600480820193918290030181865afa158015610815573d6000803e3d6000fd5b505050506040513d601f19601f820116820180604052508101906108399190610bef565b600381111561084a5761084a610c10565b82828151811061085c5761085c610bbc565b60209081029190910101528061087181610b66565b915050610438565b5092959891949750929550565b606060005467ffffffffffffffff8111156108a3576108a3610b8d565b6040519080825280602002602001820160405280156108cc578160200160208202803683370190505b50905060005b6000548110156109355760008181526001602052604090205482516001600160a01b039091169083908390811061090b5761090b610bbc565b6001600160a01b03909216602092830291909101909101528061092d81610b66565b9150506108d2565b5090565b610cc680610c2783390190565b6001600160a01b038116811461095b57600080fd5b50565b60008060008060008060c0878903121561097757600080fd5b86359550602087013594506040870135935060608701359250608087013561099e81610946565b8092505060a087013590509295509295509295565b600080602083850312156109c657600080fd5b823567ffffffffffffffff808211156109de57600080fd5b818501915085601f8301126109f257600080fd5b813581811115610a0157600080fd5b8660208260051b8501011115610a1657600080fd5b60209290920196919550909350505050565b600081518084526020808501945080840160005b83811015610a5857815187529582019590820190600101610a3c565b509495945050505050565b600081518084526020808501945080840160005b83811015610a585781516001600160a01b031687529582019590820190600101610a77565b60e081526000610aaf60e083018a610a28565b8281036020840152610ac1818a610a63565b90508281036040840152610ad58189610a28565b90508281036060840152610ae98188610a28565b90508281036080840152610afd8187610a28565b905082810360a0840152610b118186610a28565b905082810360c0840152610b258185610a28565b9a9950505050505050505050565b600060208284031215610b4557600080fd5b5035919050565b602081526000610b5f6020830184610a63565b9392505050565b600060018201610b8657634e487b7160e01b600052601160045260246000fd5b5060010190565b634e487b7160e01b600052604160045260246000fd5b600060208284031215610bb557600080fd5b5051919050565b634e487b7160e01b600052603260045260246000fd5b600060208284031215610be457600080fd5b8151610b5f81610946565b600060208284031215610c0157600080fd5b815160048110610b5f57600080fd5b634e487b7160e01b600052602160045260246000fdfe608060405234801561001057600080fd5b50604051610cc6380380610cc683398101604081905261002f916100cf565b600480546001600160a01b0319166001600160a01b0389161790556100548642610132565b60005542600155600894909455600992909255600a55600c80546001600160a01b03199081166001600160a01b03938416908117909255600b805482169092179091556006929092556003805490921693169290921790915550610159565b80516001600160a01b03811681146100ca57600080fd5b919050565b600080600080600080600060e0888a0312156100ea57600080fd5b6100f3886100b3565b96506020880151955060408801519450606088015193506080880151925061011d60a089016100b3565b915060c0880151905092959891949750929550565b8082018082111561015357634e487b7160e01b600052601160045260246000fd5b92915050565b610b5e806101686000396000f3fe6080604052600436106101145760003560e01c806374b11d8a116100a0578063b5bc959111610064578063b5bc9591146102e0578063ca628c7814610300578063ecfc7ecc14610315578063f1a9af891461031d578063f9381d531461033357600080fd5b806374b11d8a1461026f57806378e97925146102855780638afcb14d1461029b5780638fa8b790146102b157806395ee1221146102c657600080fd5b80633197cbb6116100e75780633197cbb6146101c15780634423c5f1146101d75780634f50ef53146102165780635bf8633a14610239578063700cdab11461025957600080fd5b806302d05d3f1461011957806308bfc3001461015657806317d70f7c1461017857806324600fc31461019c575b600080fd5b34801561012557600080fd5b50600454610139906001600160a01b031681565b6040516001600160a01b0390911681526020015b60405180910390f35b34801561016257600080fd5b5061016b610352565b60405161014d91906109ef565b34801561018457600080fd5b5061018e60065481565b60405190815260200161014d565b3480156101a857600080fd5b506101b1610391565b604051901515815260200161014d565b3480156101cd57600080fd5b5061018e60005481565b3480156101e357600080fd5b506101f76101f2366004610a17565b610470565b604080516001600160a01b03909316835260208301919091520161014d565b34801561022257600080fd5b5061022b6104a8565b60405161014d929190610a30565b34801561024557600080fd5b50600b54610139906001600160a01b031681565b34801561026557600080fd5b5061018e60095481565b34801561027b57600080fd5b5061018e60025481565b34801561029157600080fd5b5061018e60015481565b3480156102a757600080fd5b5061018e60085481565b3480156102bd57600080fd5b506101b1610611565b3480156102d257600080fd5b506007546101b19060ff1681565b3480156102ec57600080fd5b50600354610139906001600160a01b031681565b34801561030c57600080fd5b506101b161070c565b6101b161081d565b34801561032957600080fd5b5061018e600a5481565b34801561033f57600080fd5b506007546101b190610100900460ff1681565b60075460009060ff16156103665750600190565b600754610100900460ff161561037c5750600390565b600054421061038b5750600290565b50600090565b6000600261039d610352565b60038111156103ae576103ae6109d9565b14806103d2575060036103bf610352565b60038111156103d0576103d06109d9565b145b6103db57600080fd5b6004546001600160a01b031633146103f257600080fd5b6004546002546040516001600160a01b039092169181156108fc0291906000818181858888f1935050505015801561042e573d6000803e3d6000fd5b506002546040805133815260208101929092527f21901fa892c430ea8bd38b9390225ac8e67eac75ee10ffba16feefc539a288f991015b60405180910390a190565b6005818154811061048057600080fd5b6000918252602090912060029091020180546001909101546001600160a01b03909116915082565b606080600060058054905067ffffffffffffffff8111156104cb576104cb610ab4565b6040519080825280602002602001820160405280156104f4578160200160208202803683370190505b5060055490915060009067ffffffffffffffff81111561051657610516610ab4565b60405190808252806020026020018201604052801561053f578160200160208202803683370190505b50905060005b600554811015610607576005818154811061056257610562610aca565b600091825260209091206002909102015483516001600160a01b039091169084908390811061059357610593610aca565b60200260200101906001600160a01b031690816001600160a01b031681525050600581815481106105c6576105c6610aca565b9060005260206000209060020201600101548282815181106105ea576105ea610aca565b6020908102919091010152806105ff81610af6565b915050610545565b5090939092509050565b6004546000906001600160a01b0316331461062b57600080fd5b6000610635610352565b6003811115610646576106466109d9565b1461065057600080fd5b6002541561065d57600080fd5b6007805460ff19166001179055600c54600480546006546040516323b872dd60e01b815230938101939093526001600160a01b0391821660248401526044830152909116906323b872dd90606401600060405180830381600087803b1580156106c557600080fd5b505af11580156106d9573d6000803e3d6000fd5b50506040517f3edab9d02702b82c68bc3a966d302af41abe4f3d8e2408b27b94e5f9bf2d722c925060009150a150600190565b60006002610718610352565b6003811115610729576107296109d9565b148061074d5750600361073a610352565b600381111561074b5761074b6109d9565b145b61075657600080fd5b6003546001600160a01b0316331461076d57600080fd5b600c546003546006546040516323b872dd60e01b81523060048201526001600160a01b03928316602482015260448101919091529116906323b872dd90606401600060405180830381600087803b1580156107c757600080fd5b505af11580156107db573d6000803e3d6000fd5b50506003546040516001600160a01b0390911681527f5c4c9f6f3ba19404ec4644b1234fc02b326f96e961a2d4e4667694441444f34592506020019050610465565b6004546000906001600160a01b0316330361083757600080fd5b6000610841610352565b6003811115610852576108526109d9565b1461085c57600080fd5b600a54341161086a57600080fd5b60085460025461087a9190610b0f565b341161088557600080fd5b600380546002805434918290556001600160a01b0319831633179093556009546001600160a01b039092169291116108c7576007805461ff0019166101001790555b6040805180820190915233815234602082019081526005805460018101825560009190915291517f036b6384b5eca791c62761152d0c79bb0604c104a5fb6f4eb0703f3154bb3db0600290930292830180546001600160a01b0319166001600160a01b03909216919091179055517f036b6384b5eca791c62761152d0c79bb0604c104a5fb6f4eb0703f3154bb3db1909101558015610998576040516001600160a01b0383169082156108fc029083906000818181858888f19350505050158015610996573d6000803e3d6000fd5b505b604080513381523460208201527fdd0b6c6a77960e2066c96171b4d7ac9e8b4c184011f38544afa36a5bb63ec59f910160405180910390a160019250505090565b634e487b7160e01b600052602160045260246000fd5b6020810160048310610a1157634e487b7160e01b600052602160045260246000fd5b91905290565b600060208284031215610a2957600080fd5b5035919050565b604080825283519082018190526000906020906060840190828701845b82811015610a725781516001600160a01b031684529284019290840190600101610a4d565b5050508381038285015284518082528583019183019060005b81811015610aa757835183529284019291840191600101610a8b565b5090979650505050505050565b634e487b7160e01b600052604160045260246000fd5b634e487b7160e01b600052603260045260246000fd5b634e487b7160e01b600052601160045260246000fd5b600060018201610b0857610b08610ae0565b5060010190565b80820180821115610b2257610b22610ae0565b9291505056fea264697066735822122037d32e10e22ab84692adb4f69ff2ff0457577145e28c3948566a5a5aa25678db64736f6c63430008110033a2646970667358221220dd0dbc75584d54159e50074ffb78677172cd0d29bf3c0c6df6747b8a944015de64736f6c63430008110033",
    "linkReferences": {},
    "deployedLinkReferences": {}
}